{
  "_format": "hh-sol-artifact-1",
  "contractName": "AllowanceManager",
  "sourceName": "src/AllowanceManager.sol",
  "abi": [
    {
      "inputs": [],
      "stateMutability": "nonpayable",
      "type": "constructor"
    },
    {
      "anonymous": false,
      "inputs": [
        {
          "indexed": true,
          "internalType": "address",
          "name": "newAgent",
          "type": "address"
        }
      ],
      "name": "AIAgentUpdated",
      "type": "event"
    },
    {
      "anonymous": false,
      "inputs": [
        {
          "indexed": true,
          "internalType": "address",
          "name": "parent",
          "type": "address"
        },
        {
          "indexed": true,
          "internalType": "address",
          "name": "child",
          "type": "address"
        },
        {
          "indexed": false,
          "internalType": "uint256",
          "name": "amount",
          "type": "uint256"
        }
      ],
      "name": "AllowanceFunded",
      "type": "event"
    },
    {
      "anonymous": false,
      "inputs": [
        {
          "indexed": true,
          "internalType": "address",
          "name": "child",
          "type": "address"
        },
        {
          "indexed": false,
          "internalType": "string",
          "name": "category",
          "type": "string"
        },
        {
          "indexed": false,
          "internalType": "bool",
          "name": "allowed",
          "type": "bool"
        }
      ],
      "name": "CategoryUpdated",
      "type": "event"
    },
    {
      "anonymous": false,
      "inputs": [
        {
          "indexed": true,
          "internalType": "address",
          "name": "parent",
          "type": "address"
        },
        {
          "indexed": true,
          "internalType": "address",
          "name": "child",
          "type": "address"
        },
        {
          "indexed": false,
          "internalType": "string",
          "name": "aliasName",
          "type": "string"
        }
      ],
      "name": "ChildAdded",
      "type": "event"
    },
    {
      "anonymous": false,
      "inputs": [
        {
          "indexed": true,
          "internalType": "address",
          "name": "child",
          "type": "address"
        },
        {
          "indexed": false,
          "internalType": "uint256",
          "name": "weeklyLimit",
          "type": "uint256"
        },
        {
          "indexed": false,
          "internalType": "uint256",
          "name": "monthlyLimit",
          "type": "uint256"
        }
      ],
      "name": "LimitsUpdated",
      "type": "event"
    },
    {
      "anonymous": false,
      "inputs": [
        {
          "indexed": true,
          "internalType": "address",
          "name": "child",
          "type": "address"
        },
        {
          "indexed": true,
          "internalType": "address",
          "name": "merchant",
          "type": "address"
        },
        {
          "indexed": false,
          "internalType": "uint256",
          "name": "amount",
          "type": "uint256"
        },
        {
          "indexed": false,
          "internalType": "string",
          "name": "category",
          "type": "string"
        },
        {
          "indexed": false,
          "internalType": "bool",
          "name": "approved",
          "type": "bool"
        }
      ],
      "name": "PaymentProcessed",
      "type": "event"
    },
    {
      "inputs": [
        {
          "internalType": "address",
          "name": "childWallet",
          "type": "address"
        },
        {
          "internalType": "string",
          "name": "aliasName",
          "type": "string"
        },
        {
          "internalType": "uint256",
          "name": "weeklyLimit",
          "type": "uint256"
        },
        {
          "internalType": "uint256",
          "name": "monthlyLimit",
          "type": "uint256"
        }
      ],
      "name": "addChild",
      "outputs": [],
      "stateMutability": "nonpayable",
      "type": "function"
    },
    {
      "inputs": [],
      "name": "aiAgent",
      "outputs": [
        {
          "internalType": "address",
          "name": "",
          "type": "address"
        }
      ],
      "stateMutability": "view",
      "type": "function"
    },
    {
      "inputs": [
        {
          "internalType": "address",
          "name": "",
          "type": "address"
        },
        {
          "internalType": "string",
          "name": "",
          "type": "string"
        }
      ],
      "name": "categoryAllowed",
      "outputs": [
        {
          "internalType": "bool",
          "name": "",
          "type": "bool"
        }
      ],
      "stateMutability": "view",
      "type": "function"
    },
    {
      "inputs": [
        {
          "internalType": "address",
          "name": "",
          "type": "address"
        }
      ],
      "name": "children",
      "outputs": [
        {
          "internalType": "address",
          "name": "wallet",
          "type": "address"
        },
        {
          "internalType": "string",
          "name": "aliasName",
          "type": "string"
        },
        {
          "internalType": "uint256",
          "name": "balance",
          "type": "uint256"
        },
        {
          "internalType": "uint256",
          "name": "weeklyLimit",
          "type": "uint256"
        },
        {
          "internalType": "uint256",
          "name": "monthlyLimit",
          "type": "uint256"
        },
        {
          "internalType": "uint256",
          "name": "weeklySpent",
          "type": "uint256"
        },
        {
          "internalType": "uint256",
          "name": "monthlySpent",
          "type": "uint256"
        },
        {
          "internalType": "uint256",
          "name": "weekStart",
          "type": "uint256"
        },
        {
          "internalType": "uint256",
          "name": "monthStart",
          "type": "uint256"
        },
        {
          "internalType": "bool",
          "name": "active",
          "type": "bool"
        },
        {
          "internalType": "address",
          "name": "parent",
          "type": "address"
        }
      ],
      "stateMutability": "view",
      "type": "function"
    },
    {
      "inputs": [
        {
          "internalType": "address",
          "name": "childWallet",
          "type": "address"
        }
      ],
      "name": "fundChild",
      "outputs": [],
      "stateMutability": "payable",
      "type": "function"
    },
    {
      "inputs": [
        {
          "internalType": "address",
          "name": "childWallet",
          "type": "address"
        }
      ],
      "name": "getAlias",
      "outputs": [
        {
          "internalType": "string",
          "name": "",
          "type": "string"
        }
      ],
      "stateMutability": "view",
      "type": "function"
    },
    {
      "inputs": [
        {
          "internalType": "address",
          "name": "childWallet",
          "type": "address"
        }
      ],
      "name": "getChild",
      "outputs": [
        {
          "components": [
            {
              "internalType": "address",
              "name": "wallet",
              "type": "address"
            },
            {
              "internalType": "string",
              "name": "aliasName",
              "type": "string"
            },
            {
              "internalType": "uint256",
              "name": "balance",
              "type": "uint256"
            },
            {
              "internalType": "uint256",
              "name": "weeklyLimit",
              "type": "uint256"
            },
            {
              "internalType": "uint256",
              "name": "monthlyLimit",
              "type": "uint256"
            },
            {
              "internalType": "uint256",
              "name": "weeklySpent",
              "type": "uint256"
            },
            {
              "internalType": "uint256",
              "name": "monthlySpent",
              "type": "uint256"
            },
            {
              "internalType": "uint256",
              "name": "weekStart",
              "type": "uint256"
            },
            {
              "internalType": "uint256",
              "name": "monthStart",
              "type": "uint256"
            },
            {
              "internalType": "bool",
              "name": "active",
              "type": "bool"
            },
            {
              "internalType": "address",
              "name": "parent",
              "type": "address"
            }
          ],
          "internalType": "struct AllowanceManager.Child",
          "name": "",
          "type": "tuple"
        }
      ],
      "stateMutability": "view",
      "type": "function"
    },
    {
      "inputs": [
        {
          "internalType": "address",
          "name": "parent",
          "type": "address"
        }
      ],
      "name": "getParentChildren",
      "outputs": [
        {
          "internalType": "address[]",
          "name": "",
          "type": "address[]"
        }
      ],
      "stateMutability": "view",
      "type": "function"
    },
    {
      "inputs": [
        {
          "internalType": "address",
          "name": "childWallet",
          "type": "address"
        }
      ],
      "name": "getSpendingStats",
      "outputs": [
        {
          "internalType": "uint256",
          "name": "weeklySpent",
          "type": "uint256"
        },
        {
          "internalType": "uint256",
          "name": "monthlySpent",
          "type": "uint256"
        },
        {
          "internalType": "uint256",
          "name": "weeklyLimit",
          "type": "uint256"
        },
        {
          "internalType": "uint256",
          "name": "monthlyLimit",
          "type": "uint256"
        },
        {
          "internalType": "uint256",
          "name": "balance",
          "type": "uint256"
        }
      ],
      "stateMutability": "view",
      "type": "function"
    },
    {
      "inputs": [],
      "name": "getTransactionCount",
      "outputs": [
        {
          "internalType": "uint256",
          "name": "",
          "type": "uint256"
        }
      ],
      "stateMutability": "view",
      "type": "function"
    },
    {
      "inputs": [
        {
          "internalType": "address",
          "name": "childWallet",
          "type": "address"
        },
        {
          "internalType": "string",
          "name": "category",
          "type": "string"
        }
      ],
      "name": "isCategoryAllowed",
      "outputs": [
        {
          "internalType": "bool",
          "name": "",
          "type": "bool"
        }
      ],
      "stateMutability": "view",
      "type": "function"
    },
    {
      "inputs": [],
      "name": "owner",
      "outputs": [
        {
          "internalType": "address",
          "name": "",
          "type": "address"
        }
      ],
      "stateMutability": "view",
      "type": "function"
    },
    {
      "inputs": [
        {
          "internalType": "address",
          "name": "",
          "type": "address"
        },
        {
          "internalType": "uint256",
          "name": "",
          "type": "uint256"
        }
      ],
      "name": "parentChildren",
      "outputs": [
        {
          "internalType": "address",
          "name": "",
          "type": "address"
        }
      ],
      "stateMutability": "view",
      "type": "function"
    },
    {
      "inputs": [
        {
          "internalType": "address",
          "name": "childWallet",
          "type": "address"
        },
        {
          "internalType": "address payable",
          "name": "merchant",
          "type": "address"
        },
        {
          "internalType": "uint256",
          "name": "amount",
          "type": "uint256"
        },
        {
          "internalType": "string",
          "name": "category",
          "type": "string"
        },
        {
          "internalType": "string",
          "name": "merchantName",
          "type": "string"
        },
        {
          "internalType": "bool",
          "name": "approved",
          "type": "bool"
        }
      ],
      "name": "processPayment",
      "outputs": [],
      "stateMutability": "nonpayable",
      "type": "function"
    },
    {
      "inputs": [
        {
          "internalType": "string",
          "name": "aliasName",
          "type": "string"
        }
      ],
      "name": "resolveAlias",
      "outputs": [
        {
          "internalType": "address",
          "name": "",
          "type": "address"
        }
      ],
      "stateMutability": "view",
      "type": "function"
    },
    {
      "inputs": [
        {
          "internalType": "address",
          "name": "newAgent",
          "type": "address"
        }
      ],
      "name": "setAIAgent",
      "outputs": [],
      "stateMutability": "nonpayable",
      "type": "function"
    },
    {
      "inputs": [
        {
          "internalType": "address",
          "name": "childWallet",
          "type": "address"
        },
        {
          "internalType": "string",
          "name": "category",
          "type": "string"
        },
        {
          "internalType": "bool",
          "name": "allowed",
          "type": "bool"
        }
      ],
      "name": "setCategory",
      "outputs": [],
      "stateMutability": "nonpayable",
      "type": "function"
    },
    {
      "inputs": [
        {
          "internalType": "uint256",
          "name": "",
          "type": "uint256"
        }
      ],
      "name": "transactions",
      "outputs": [
        {
          "internalType": "address",
          "name": "child",
          "type": "address"
        },
        {
          "internalType": "address",
          "name": "merchant",
          "type": "address"
        },
        {
          "internalType": "uint256",
          "name": "amount",
          "type": "uint256"
        },
        {
          "internalType": "string",
          "name": "category",
          "type": "string"
        },
        {
          "internalType": "string",
          "name": "merchantName",
          "type": "string"
        },
        {
          "internalType": "bool",
          "name": "approved",
          "type": "bool"
        },
        {
          "internalType": "uint256",
          "name": "timestamp",
          "type": "uint256"
        }
      ],
      "stateMutability": "view",
      "type": "function"
    },
    {
      "inputs": [
        {
          "internalType": "address",
          "name": "childWallet",
          "type": "address"
        },
        {
          "internalType": "uint256",
          "name": "weeklyLimit",
          "type": "uint256"
        },
        {
          "internalType": "uint256",
          "name": "monthlyLimit",
          "type": "uint256"
        }
      ],
      "name": "updateLimits",
      "outputs": [],
      "stateMutability": "nonpayable",
      "type": "function"
    },
    {
      "inputs": [
        {
          "internalType": "address",
          "name": "childWallet",
          "type": "address"
        },
        {
          "internalType": "uint256",
          "name": "amount",
          "type": "uint256"
        }
      ],
      "name": "withdrawFromChild",
      "outputs": [],
      "stateMutability": "nonpayable",
      "type": "function"
    },
    {
      "stateMutability": "payable",
      "type": "receive"
    }
  ],
  "bytecode": "0x608060405234801561001057600080fd5b5060008054336001600160a01b0319918216811783556006805490921617905561221890819061004090396000f3fe6080604052600436106101235760003560e01c806399900d11116100a0578063b637654511610064578063b6376545146103f4578063bd8e565214610450578063c790242714610470578063cf4c34a614610490578063f0018da7146104b057600080fd5b806399900d11146103415780639ace38c21461036e5780639be3801e146103a1578063a0616ea4146103c1578063a6d5b732146103d457600080fd5b80636ebe941b116100e75780636ebe941b146102435780637aa16d3d146102635780638816543a146102835780638da5cb5b146102a3578063951c232f146102c357600080fd5b806322b0a4381461016c57806322d433a01461018e57806325a10a70146101cb5780632e7700f0146101f85780633da42a521461021657600080fd5b366101675760405162461bcd60e51b815260206004820152600f60248201526e5573652066756e644368696c64282960881b60448201526064015b60405180910390fd5b600080fd5b34801561017857600080fd5b5061018c610187366004611992565b6104e7565b005b34801561019a57600080fd5b506101ae6101a93660046119f9565b61094a565b6040516001600160a01b0390911681526020015b60405180910390f35b3480156101d757600080fd5b506101eb6101e6366004611a25565b610982565b6040516101c29190611a8f565b34801561020457600080fd5b506007546040519081526020016101c2565b34801561022257600080fd5b50610236610231366004611a25565b610b2b565b6040516101c29190611b47565b34801561024f57600080fd5b5061018c61025e366004611a25565b610ba1565b34801561026f57600080fd5b5061018c61027e366004611ba9565b610c31565b34801561028f57600080fd5b506101ae61029e366004611c10565b610d4b565b3480156102af57600080fd5b506000546101ae906001600160a01b031681565b3480156102cf57600080fd5b506103196102de366004611a25565b6001600160a01b0316600090815260016020526040902060058101546006820154600383015460048401546002909401549294919390929091565b604080519586526020860194909452928401919091526060830152608082015260a0016101c2565b34801561034d57600080fd5b5061036161035c366004611a25565b610d99565b6040516101c29190611c52565b34801561037a57600080fd5b5061038e610389366004611c65565b610e3f565b6040516101c29796959493929190611c7e565b3480156103ad57600080fd5b5061018c6103bc366004611cda565b610fb1565b61018c6103cf366004611a25565b611444565b3480156103e057600080fd5b506006546101ae906001600160a01b031681565b34801561040057600080fd5b5061044061040f366004611d9f565b6005602090815260009283526040909220815180830184018051928152908401929093019190912091525460ff1681565b60405190151581526020016101c2565b34801561045c57600080fd5b5061018c61046b3660046119f9565b61157a565b34801561047c57600080fd5b5061044061048b366004611e63565b6116c1565b34801561049c57600080fd5b5061018c6104ab366004611eb8565b611705565b3480156104bc57600080fd5b506104d06104cb366004611a25565b6117ec565b6040516101c29b9a99989796959493929190611eed565b6001600160a01b03851661052e5760405162461bcd60e51b815260206004820152600e60248201526d125b9d985b1a59081dd85b1b195d60921b604482015260640161015e565b821580159061053e575060208311155b61057a5760405162461bcd60e51b815260206004820152600d60248201526c496e76616c696420616c69617360981b604482015260640161015e565b6001600160a01b03851660009081526001602052604090206009015460ff16156105e65760405162461bcd60e51b815260206004820152601860248201527f4368696c6420616c726561647920726567697374657265640000000000000000604482015260640161015e565b600084846040516020016105fb929190611f63565b60408051601f198184030181529181528151602092830120600081815260029093529120549091506001600160a01b0316156106675760405162461bcd60e51b815260206004820152600b60248201526a20b634b0b9903a30b5b2b760a91b604482015260640161015e565b604051806101600160405280876001600160a01b0316815260200186868080601f016020809104026020016040519081016040528093929190818152602001838380828437600092018290525093855250505060208083018290526040808401889052606084018790526080840183905260a084018390524260c0850181905260e08501526001610100850181905233610120909501949094526001600160a01b038b811684528483529220845181546001600160a01b0319169316929092178255830151909182019061073b9082611ffc565b506040828101516002838101919091556060840151600380850191909155608085015160048086019190915560a086015160058087019190915560c0870151600687015560e0870151600787015561010080880151600888015561012088015160099097018054610140909901516001600160a81b0319909916971515610100600160a81b031916979097176001600160a01b03988916909102179095556000878152602093845284812080546001600160a01b0319908116988f1698891790915587825292845284812088905533815281845284812080546001818101835591835285832001805490941688179093559586529390915292819020905163199bdbd960e21b81529091019081526040805160209281900383018120805460ff1916941515949094179093556001600160a01b0389166000908152600590925290206832b23ab1b0ba34b7b760b91b82526001916009019081526040805160209281900383018120805460ff1916941515949094179093556001600160a01b03891660009081526005909252902067636c6f7468696e6760c01b8252600191600801908152604051908190036020018120805492151560ff19909316929092179091556001600160a01b0387169033907fca08e062f7092c47f5a5b5dac5dddf1ea5cbe733b765987df9d374def18b4d4e9061093a90899089906120e5565b60405180910390a3505050505050565b6004602052816000526040600020818154811061096657600080fd5b6000918252602090912001546001600160a01b03169150829050565b6109f360405180610160016040528060006001600160a01b03168152602001606081526020016000815260200160008152602001600081526020016000815260200160008152602001600081526020016000815260200160001515815260200160006001600160a01b031681525090565b6001600160a01b038083166000908152600160208181526040928390208351610160810190945280549094168352908301805492939291840191610a3690611f73565b80601f0160208091040260200160405190810160405280929190818152602001828054610a6290611f73565b8015610aaf5780601f10610a8457610100808354040283529160200191610aaf565b820191906000526020600020905b815481529060010190602001808311610a9257829003601f168201915b505050918352505060028201546020820152600382015460408201526004820154606082015260058201546080820152600682015460a0820152600782015460c0820152600882015460e082015260099091015460ff81161515610100808401919091526001600160a01b039104166101209091015292915050565b6001600160a01b038116600090815260046020908152604091829020805483518184028101840190945280845260609392830182828015610b9557602002820191906000526020600020905b81546001600160a01b03168152600190910190602001808311610b77575b50505050509050919050565b6000546001600160a01b03163314610be75760405162461bcd60e51b81526020600482015260096024820152682737ba1037bbb732b960b91b604482015260640161015e565b600680546001600160a01b0319166001600160a01b0383169081179091556040517f91fb2ab6ae2c97b27c8675b15c080c2a5c59357a2795737c9590bdefa0539ffd90600090a250565b6001600160a01b038085166000908152600160205260409020600901548591610100909104163314610c755760405162461bcd60e51b815260040161015e90612101565b6001600160a01b038516600090815260016020526040902060090154859060ff16610cb25760405162461bcd60e51b815260040161015e90612125565b6001600160a01b038616600090815260056020526040908190209051849190610cde9088908890611f63565b908152604051908190036020018120805492151560ff19909316929092179091556001600160a01b038716907f4bd3238d942d77f0cdd53d8eee9f5d8c9fddd38854cb51863e4d4199ce09d38d90610d3b90889088908890612153565b60405180910390a2505050505050565b6000808383604051602001610d61929190611f63565b60408051601f198184030181529181528151602092830120600090815260029092529020546001600160a01b03169150505b92915050565b6001600160a01b038116600090815260016020819052604090912001805460609190610dc490611f73565b80601f0160208091040260200160405190810160405280929190818152602001828054610df090611f73565b8015610b955780601f10610e1257610100808354040283529160200191610b95565b820191906000526020600020905b815481529060010190602001808311610e205750939695505050505050565b60078181548110610e4f57600080fd5b600091825260209091206007909102018054600182015460028301546003840180546001600160a01b039485169650929093169390929091610e9090611f73565b80601f0160208091040260200160405190810160405280929190818152602001828054610ebc90611f73565b8015610f095780601f10610ede57610100808354040283529160200191610f09565b820191906000526020600020905b815481529060010190602001808311610eec57829003601f168201915b505050505090806004018054610f1e90611f73565b80601f0160208091040260200160405190810160405280929190818152602001828054610f4a90611f73565b8015610f975780601f10610f6c57610100808354040283529160200191610f97565b820191906000526020600020905b815481529060010190602001808311610f7a57829003601f168201915b505050506005830154600690930154919260ff1691905087565b6006546001600160a01b0316331480610fd457506000546001600160a01b031633145b61100f5760405162461bcd60e51b815260206004820152600c60248201526b139bdd081052481859d95b9d60a21b604482015260640161015e565b6001600160a01b038816600090815260016020526040902060090154889060ff1661104c5760405162461bcd60e51b815260040161015e90612125565b6001600160a01b038916600090815260016020526040902061106d816118e3565b6110768161190c565b82156112845787816002015410156110c75760405162461bcd60e51b8152602060048201526014602482015273496e73756666696369656e742062616c616e636560601b604482015260640161015e565b80600301548882600501546110dc919061218f565b11156111225760405162461bcd60e51b815260206004820152601560248201527415d9595adb1e481b1a5b5a5d08195e18d959591959605a1b604482015260640161015e565b8060040154888260060154611137919061218f565b111561117e5760405162461bcd60e51b8152602060048201526016602482015275135bdb9d1a1b1e481b1a5b5a5d08195e18d95959195960521b604482015260640161015e565b6001600160a01b038a166000908152600560205260409081902090516111a79089908990611f63565b9081526040519081900360200190205460ff166111fd5760405162461bcd60e51b815260206004820152601460248201527310d85d1959dbdc9e481b9bdd08185b1b1bddd95960621b604482015260640161015e565b8781600201600082825461121191906121a2565b925050819055508781600501600082825461122c919061218f565b9250508190555087816006016000828254611247919061218f565b90915550506040516001600160a01b038a169089156108fc02908a906000818181858888f19350505050158015611282573d6000803e3d6000fd5b505b60076040518060e001604052808c6001600160a01b031681526020018b6001600160a01b031681526020018a815260200189898080601f016020809104026020016040519081016040528093929190818152602001838380828437600092019190915250505090825250604080516020601f8a018190048102820181019092528881529181019190899089908190840183828082843760009201829052509385525050508615156020808401919091524260409384015284546001818101875595835291819020845160079093020180546001600160a01b039384166001600160a01b031991821617825591850151958101805496909316959091169490941790558101516002830155606081015190919060038201906113a59082611ffc565b50608082015160048201906113ba9082611ffc565b5060a08201518160050160006101000a81548160ff02191690831515021790555060c082015181600601555050886001600160a01b03168a6001600160a01b03167fd57c4fe42b050e311e010b4bf89655cca9c5b2918f1a7827bddf9f78a9611e968a8a8a8860405161143094939291906121b5565b60405180910390a350505050505050505050565b6001600160a01b0380821660009081526001602052604090206009015482916101009091041633146114885760405162461bcd60e51b815260040161015e90612101565b6001600160a01b038216600090815260016020526040902060090154829060ff166114c55760405162461bcd60e51b815260040161015e90612125565b600034116115055760405162461bcd60e51b815260206004820152600d60248201526c09aeae6e840e6cadcc8408aa89609b1b604482015260640161015e565b6001600160a01b0383166000908152600160205260408120600201805434929061153090849061218f565b90915550506040513481526001600160a01b0384169033907fd0fa3d1a6bfdc6e01f2dfd22ec4c2a2bfc1712eea7f634430288e0407ff7978d9060200160405180910390a3505050565b6001600160a01b0380831660009081526001602052604090206009015483916101009091041633146115be5760405162461bcd60e51b815260040161015e90612101565b6001600160a01b038316600090815260016020526040902060090154839060ff166115fb5760405162461bcd60e51b815260040161015e90612125565b6001600160a01b03841660009081526001602052604090206002015483111561165d5760405162461bcd60e51b8152602060048201526014602482015273496e73756666696369656e742062616c616e636560601b604482015260640161015e565b6001600160a01b038416600090815260016020526040812060020180548592906116889084906121a2565b9091555050604051339084156108fc029085906000818181858888f193505050501580156116ba573d6000803e3d6000fd5b5050505050565b6001600160a01b03831660009081526005602052604080822090516116e99085908590611f63565b9081526040519081900360200190205460ff1690509392505050565b6001600160a01b0380841660009081526001602052604090206009015484916101009091041633146117495760405162461bcd60e51b815260040161015e90612101565b6001600160a01b038416600090815260016020526040902060090154849060ff166117865760405162461bcd60e51b815260040161015e90612125565b6001600160a01b0385166000818152600160209081526040918290206003810188905560040186905581518781529081018690527fdc679119ed8c7f3e58938f78968a044a7d8f8ab9d80398506c4289c318a5e3ee910160405180910390a25050505050565b6001602081905260009182526040909120805491810180546001600160a01b039093169261181990611f73565b80601f016020809104026020016040519081016040528092919081815260200182805461184590611f73565b80156118925780601f1061186757610100808354040283529160200191611892565b820191906000526020600020905b81548152906001019060200180831161187557829003601f168201915b50505060028401546003850154600486015460058701546006880154600789015460088a01546009909a0154989995989497509295509093909260ff8116906001600160a01b03610100909104168b565b60078101546118f59062093a8061218f565b421061190957600060058201554260078201555b50565b600881015461191e9062278d0061218f565b4210611909576000600682015542600882015550565b6001600160a01b038116811461190957600080fd5b60008083601f84011261195b57600080fd5b50813567ffffffffffffffff81111561197357600080fd5b60208301915083602082850101111561198b57600080fd5b9250929050565b6000806000806000608086880312156119aa57600080fd5b85356119b581611934565b9450602086013567ffffffffffffffff8111156119d157600080fd5b6119dd88828901611949565b9699909850959660408101359660609091013595509350505050565b60008060408385031215611a0c57600080fd5b8235611a1781611934565b946020939093013593505050565b600060208284031215611a3757600080fd5b8135611a4281611934565b9392505050565b6000815180845260005b81811015611a6f57602081850181015186830182015201611a53565b506000602082860101526020601f19601f83011685010191505092915050565b60208152611aa96020820183516001600160a01b03169052565b60006020830151610160806040850152611ac7610180850183611a49565b91506040850151606085015260608501516080850152608085015160a085015260a085015160c085015260c085015160e085015260e0850151610100818187015280870151915050610120818187015280870151915050610140611b2e8187018315159052565b909501516001600160a01b031693019290925250919050565b6020808252825182820181905260009190848201906040850190845b81811015611b885783516001600160a01b031683529284019291840191600101611b63565b50909695505050505050565b80358015158114611ba457600080fd5b919050565b60008060008060608587031215611bbf57600080fd5b8435611bca81611934565b9350602085013567ffffffffffffffff811115611be657600080fd5b611bf287828801611949565b9094509250611c05905060408601611b94565b905092959194509250565b60008060208385031215611c2357600080fd5b823567ffffffffffffffff811115611c3a57600080fd5b611c4685828601611949565b90969095509350505050565b602081526000611a426020830184611a49565b600060208284031215611c7757600080fd5b5035919050565b6001600160a01b038881168252871660208201526040810186905260e060608201819052600090611cb190830187611a49565b8281036080840152611cc38187611a49565b94151560a0840152505060c0015295945050505050565b60008060008060008060008060c0898b031215611cf657600080fd5b8835611d0181611934565b97506020890135611d1181611934565b965060408901359550606089013567ffffffffffffffff80821115611d3557600080fd5b611d418c838d01611949565b909750955060808b0135915080821115611d5a57600080fd5b50611d678b828c01611949565b9094509250611d7a905060a08a01611b94565b90509295985092959890939650565b634e487b7160e01b600052604160045260246000fd5b60008060408385031215611db257600080fd5b8235611dbd81611934565b9150602083013567ffffffffffffffff80821115611dda57600080fd5b818501915085601f830112611dee57600080fd5b813581811115611e0057611e00611d89565b604051601f8201601f19908116603f01168101908382118183101715611e2857611e28611d89565b81604052828152886020848701011115611e4157600080fd5b8260208601602083013760006020848301015280955050505050509250929050565b600080600060408486031215611e7857600080fd5b8335611e8381611934565b9250602084013567ffffffffffffffff811115611e9f57600080fd5b611eab86828701611949565b9497909650939450505050565b600080600060608486031215611ecd57600080fd5b8335611ed881611934565b95602085013595506040909401359392505050565b6001600160a01b038c8116825261016060208301819052600091611f138483018f611a49565b604085019d909d52606084019b909b525050608081019790975260a087019590955260c086019390935260e085019190915261010084015215156101208301529091166101409091015292915050565b8183823760009101908152919050565b600181811c90821680611f8757607f821691505b602082108103611fa757634e487b7160e01b600052602260045260246000fd5b50919050565b601f821115611ff757600081815260208120601f850160051c81016020861015611fd45750805b601f850160051c820191505b81811015611ff357828155600101611fe0565b5050505b505050565b815167ffffffffffffffff81111561201657612016611d89565b61202a816120248454611f73565b84611fad565b602080601f83116001811461205f57600084156120475750858301515b600019600386901b1c1916600185901b178555611ff3565b600085815260208120601f198616915b8281101561208e5788860151825594840194600190910190840161206f565b50858210156120ac5787850151600019600388901b60f8161c191681555b5050505050600190811b01905550565b81835281816020850137506000828201602090810191909152601f909101601f19169091010190565b6020815260006120f96020830184866120bc565b949350505050565b6020808252600a9082015269139bdd081c185c995b9d60b21b604082015260600190565b60208082526014908201527310da1a5b19081b9bdd081c9959da5cdd195c995960621b604082015260600190565b6040815260006121676040830185876120bc565b90508215156020830152949350505050565b634e487b7160e01b600052601160045260246000fd5b80820180821115610d9357610d93612179565b81810381811115610d9357610d93612179565b8481526060602082015260006121cf6060830185876120bc565b905082151560408301529594505050505056fea2646970667358221220a2f912aa607086c221d5f4ee5681a14102a5489ee46ba3bd9b3db598958d22c864736f6c63430008140033",
  "linkReferences": {},
  "deployedLinkReferences": {}
}